:020000040800F2
:100000000080012055160008A116000851020008C2
:10001000590200086102000869020008000000009F
:10002000000000000000000000000000DD3F0008AC
:10003000A116000800000000993F0008D93E000802
:10004000A1160008A1160008A1160008A1160008B4
:10005000A1160008A1160008A1160008A1160008A4
:10006000A1160008A1160008A1160008A116000894
:10007000A1160008A1160008A1160008A116000884
:10008000A1160008A1160008A11600080000000033
:10009000000000000000000000000000A1160008A1
:1000A000A1160008A1160008A1160008A116000854
:1000B000A1160008A1160008A1160008A116000844
:1000C000A1160008A1160008A1160008A116000834
:1000D000A1160008A1160008A116000800000000E3
:1000E000A1160008A1160008A116000800000000D3
:1000F000000000000000000000000000A116000841
:1001000000000000A1160008A1160008A1160008B2
:1001100000000000000000000000000000000000DF
:10012000A1160008A1160008A1160008A1160008D3
:10013000A116000800000000000000000000000000
:10014000000000000000000000000000A1160008F0
:10015000A1160008A1160008A1160008A1160008A3
:10016000A1160008A1160008000000000000000011
:10017000000000000000000000000000000000007F
:1001800000000000A11600080000000000000000B0
:10019000A116000810B5054C237833B9044B13B1F0
:1001A0000448AFF300800123237010BD70060020C7
:1001B000000000002074000808B5034B1BB1034980
:1001C0000348AFF3008008BD000000007406002063
:1001D00020740008A3F5803A704700BF174B002B2E
:1001E00008BF134B9D46FFF7F5FF00218B460F46D6
:1001F0001348144A121A06F011FA0E4B002B00D0C5
:1002000098470D4B002B00D0984700200021040098
:100210000D000D48002802D00C48AFF3008006F016
:1002200061F92000290002F02BFA05F07DFF00BFE4
:100230000000080000000000190E000800800120E6
:1002400070060020380A00200000000000000000B6
:100250004FF0100300F00CB84FF0200300F008B886
:100260004FF0300300F004B84FF0400300F000B846
:10027000EFF308804FF0040172460A4201D0EFF319
:1002800009809C46254B196802680A60043142685F
:100290000A60043182680A600431C2680A6004316D
:1002A000F0C147460F6004314F460F600431574696
:1002B0000F6004315F460F60043102690A60083143
:1002C00042690A60043182690A600431C2690A60C5
:1002D0000431034620334FF40076324200D0043319
:1002E00075464FF01006354200D148330C46103C9D
:1002F0002360EFF309820A600431EFF308820A6099
:10030000043172460A600431EFF314820A606046D9
:10031000024B196800F0C2FAFEE70000A471000861
:1003200000207047036801221B69002118470368F9
:1003300000221B69114618476FF0150070470368CB
:100340001B69184703689B69184703689B6A18472D
:1003500000290CBF6FF01800002070470120704783
:100360006FF0150070476FF015007047704730B59B
:1003700091FAA1F391FAA1F1B3FA83F304685B0057
:100380000325B1FA81F105FA03F3490024EA0303D6
:100390008A401343036030BD7FB52B4B00220728F2
:1003A0004FD8DFE800F004121E2A364E4E4200926B
:1003B0001A6B264842F001021A631B6B03F001031B
:1003C0000093009B07B05DF804FB01921A6B204874
:1003D00042F002021A631B6B03F002030193019BBC
:1003E000F0E702921A6B1B4842F004021A631B6B7F
:1003F00003F004030293029BE4E703921A6B16488E
:1004000042F008021A631B6B03F008030393039B7B
:10041000D8E704921A6B114842F010021A631B6B62
:1004200003F010030493049BCCE705921A6B0C486D
:1004300042F080021A631B6B03F080030593059B57
:10044000C0E7084800F08EF9003802400000024082
:100450000004024000080240000C0240001002406C
:10046000001C0240C06F000810B54FF470710446C4
:1004700004F00F0400F00EFF0120A04010BD0000AA
:100480004B1C70B504460E46018216D0C1F3031012
:10049000FFF782FF05463046FFF7E6FF238A074A4B
:1004A000656103F00F03206052F82330A36105F16A
:1004B00010031835C4E90255636070BDC0720008AE
:1004C000B0F9100000F062BF0A46D0E905010AB990
:1004D000FFF74DBF0122FBE708B501F07FFE0020CA
:1004E00008BD000008B50A4B1B684BB100F088FE40
:1004F00000F074FE4FF47A72002305F093FC08BDFF
:10050000044B586A4FF47A73B0FBF3F0F7E700BF7F
:100510000C070020000C004083681A6843681A42E8
:1005200014BF01200020704703460122D3E84F0F7B
:10053000C3E8412FC0B20029F8D17047D0E84F3F3F
:10054000C0E8421FD8B2704700B589B000F07AF811
:10055000052101A800F026FA114E124D0424039B38
:10056000019A1A60304600F059FE019B049A1B0460
:100570001360304600F052FE013CF0D10424039B8E
:10058000019A1A60284600F049FE019B049A1B0458
:100590001360284600F042FE013CF0D1DEE700BFC8
:1005A000F0490200801A060007B5014600220190BA
:1005B000022000F063FB00F045F80199084606F0C0
:1005C000C6FA01990246022000F058FB03B05DF81C
:1005D00004EB00F041B8000000B5A3B002460B46A2
:1005E00001A8842106F0E8FA832806D9074B1A6887
:1005F0001B79CDF883208DF88730002802DD01A813
:10060000FFF7D2FF23B05DF804FB00BFE16F0008E5
:100610000FB407B504A951F8040B0191FFF7DCFFF3
:1006200003B05DF804EB04B07047EFF31080C043F3
:1006300000F001007047EFF30580003818BF01207B
:100640007047000008B500F013F8024A1368013340
:10065000136008BD8C060020044A136823B1013BD7
:1006600013600BB900F016B8704700BF8C0600206D
:10067000EFF3108372B6054A117831B90449DB43B0
:1006800003F001030B7001231370704791060020E3
:1006900090060020034B00221A70034B1B7803B115
:1006A00062B67047910600209006002008B50B48FE
:1006B000FFF73AFF28B1FFF7C5FFBFF34F8F20BF09
:1006C000FDE7FFF7B8FF08B1FFF73EFFFFF7ADFF0B
:1006D0000028F9D0012005F027FD00BFD406002036
:1006E00070B51B4C8EB034EA200428BF04460D467A
:1006F00016460021282204A805F090FFCDE9014606
:100700000395FFF79FFF134A13680133012B136012
:1007100009D101AD0FCD104C0FC40FCD0FC40FCDBB
:100720000FC42B68236001AC0FCC0C4D0FC50FCC50
:100730000FC50FCC0FC523682B60094B1B6813B185
:10074000A5F130009847FFF787FF00200EB070BD7D
:100750000101FF8094060020A0060020D80600209A
:10076000980600200FB407B501210648CDF804E033
:10077000FFF7E4FE019A014610B90348FFF7B0FF06
:10078000FFF794FF9C0600200001FF8008B5044697
:100790000121064876461546FFF7D0FE20B93246BD
:1007A00029462046FFF79CFFFFF780FF9C060020AC
:1007B000F0B52C4E2C4F85B000243546214656F816
:1007C000042B38460134FFF723FF0D2CF6D1AB6C18
:1007D00002936B6C01932B6C244C0093D5E90E2390
:1007E000696B2348FFF714FF21682248FFF710FFC9
:1007F000E16AA26AA36AA06A266BE76B000CCDE9E6
:1008000001670090C3F307231B48D2B2FFF700FF34
:10081000A36A1E0603D5616B1848FFF7F9FEA36AA9
:10082000180403D5A16B1648FFF7F2FEEB6C19070D
:1008300012D51448FFF7ECFE2B6DDA070FD51248DE
:10084000FFF7E6FEEB6C5B074CBF1048104805B0A5
:10085000BDE8F040FFF7DCBE0E48FFF7D9FE0E48BA
:10086000EEE700BF70070020E66F000800ED00E033
:10087000F46F00084370000851700008A070000871
:10088000AE700008BC700008CB700008FB70000858
:1008900007710008EB700008D870000813B5044613
:1008A0001548FFF7B5FE302C17D0402C1AD0202C5D
:1008B0001DD11248124CFFF7ABFE1248FFF7A8FEFD
:1008C000FFF776FF1048FFF7A3FE104A10490023F8
:1008D0000093D26B2046FFF759FF0E480E4CFFF7EE
:1008E00097FEEAE70D480E4CFFF792FEE5E70D484C
:1008F0000D4CFFF78DFEE0E7137100083C71000816
:100900003E01FF80697100087471000870070020C3
:10091000937100084B7100083F01FF80547100087B
:100920004001FF805F7100083D01FF8070B50E46F9
:1009300004461546FFF7A4FD013609D020460021E4
:10094000FFF7C2FD29462046BDE87040FFF7B8BD5D
:1009500070BD38B5036804460D465AB1826813600D
:1009600020460121FFF7B0FD29462046BDE838406A
:10097000FFF7A6BDC2681B04F1E70022FFF7D6BF50
:1009800037B50D4604460192FFF77AFD013507D0D1
:10099000019A0021204603B0BDE83040FFF7D9BFDF
:1009A00003B030BD0022FFF7EBBF000008B501F037
:1009B000C3FB00F077FE01F0B1FB01F0BDFB024B81
:1009C00001221A6008BD00BF0C0700201FB5431CA0
:1009D00010D105B05DF804FB83420AD18968039009
:1009E00000F058FC0398002105B05DF804EB00F01E
:1009F000CDBC0C31B1F900305A1CEDD100230246B8
:100A0000009302481946FFF7C1FE00BF3001018084
:100A1000884207B502460AD0431C08D0013105D0F0
:100A20000023054800931946FFF7B0FE014608462B
:100A300003B05DF804FB00BF30010180B1F9003064
:100A40005A1C01D118467047834201D1486870474B
:100A50000C31F3E7421C13B504460AD0FFF7EEFF52
:100A6000431C06D100230448009322461946FFF791
:100A70008DFE02B010BD00BF300101806FF01C0080
:100A800070476FF0150070470120704700207047D5
:100A900070470000F8B5074E15460C468F18BC424B
:100AA00005D014F8011B304600F0C2FDF7E72846D8
:100AB000F8BD00BFC407002038B511F001048DB2A5
:100AC00005D0084800F0A6FC041E18BF0124EB0660
:100AD00005D5044800F0B4FC08B144F010042046E9
:100AE00038BD00BFC407002010B5044605F02AFD3C
:100AF000204610BD10B50C462AB1044800F086FD12
:100B00002070012010BD1046FCE700BFC407002084
:100B100038B51D46074B0360074B1B68044633B9C5
:100B2000064800F0DDFC0548294600F0BFFC2046E1
:100B300038BD00BFB071000858070020C40700206E
:100B40000020704700207047074A0849136818447E
:100B5000884289BF064B10600C224FF0FF308CBFDB
:100B60001A601846704700BF9C020020007C0120DC
:100B7000340A0020012070477047704708B5FFF71E
:100B8000FBFF08BD08B5FFF7F8FF08BD037803F0C9
:100B90000303012B09D0037803F00302012A04D0D8
:100BA00043F0020303700120704700207047037870
:100BB00023F0030343F00103037070473F2870B52F
:100BC00004462FDC184D55F820305A1C13D102284A
:100BD00011DCFFF7B7FF034658B92046FFF7B0FF17
:100BE000034630B9114E3378BFF35B8FDB0704D572
:100BF0000F4B45F82430184670BD3046FFF7C6FF4E
:100C00000028F5D04FF41653032202210848FFF7BD
:100C10007FFF3046FFF7CBFF064A07490448FFF73E
:100C2000A9FFE5E70023E6E79C010020100700206C
:100C30001407002098010020910A000838B50546E5
:100C4000FFF7BCFF0B4B002443F8254030B905F0FB
:100C500065FA092303604FF0FF3038BD03685B6914
:100C60009847051E04DA05F059FA6D420560F2E76F
:100C70002046F2E79C010020FFF7E0BF13B5CDE965
:100C80000021FFF79BFFDDE9002140B905F046FA9E
:100C9000092303604FF0FF34204602B010BD036803
:100CA000DB689847041EF7DA05F038FA64420460FE
:100CB000F0E708B5131E07DA05F030FA16230360D3
:100CC0004FF0FF33184608BDFCD0FFF7D7FF40EACE
:100CD000E073F7E713B5CDE90021FFF76FFFDDE91A
:100CE000002140B905F01AFA092303604FF0FF34E0
:100CF000204602B010BD03689B689847041EF7DACF
:100D000005F00CFA64420460F0E7002A08B503DB42
:100D1000BDE80840FFF7DEBF05F000FA16230360C8
:100D20004FF0FF3008BD13B5CDE90021FFF746FFB6
:100D3000DDE9002140B905F0F1F9092303604FF026
:100D4000FF34204602B010BD03681B699847041E9B
:100D5000F7DA05F0E3F964420460F0E7FFF7E3BF78
:100D600010B5FFF72BFF30B905F0D8F90923036060
:100D70004FF0FF3010BD03689B699847041E04DAEA
:100D800005F0CCF964420460F2E70020F2E70000CD
:100D90000A4D08B52B680446986805F09BFA2B6845
:100DA000D86805F097FA0120FFF7DAFF0220FFF775
:100DB000D7FF0CB1FFF7C8FBFEE700BFFC05002022
:100DC0001FB5039005F0B6FB039A034620B90090C7
:100DD00001460348FFF7DAFC05B05DF804FB00BFED
:100DE0001F01018005F0AEBB70470000084B0949A8
:100DF00098684FF00053C21802F16042126843F83D
:100E0000042B8B42F7D1024B4FF000529A6070478F
:100E100000ED00E09401002008B5FFF7E7FFFFF7C1
:100E2000C5FD01F02FFAFFF7DFFF08BD2DE9F74FF1
:100E3000446894F83A100646002955D1016849687B
:100E400088477168096A814205464DD0206AE16889
:100E5000A6682562281A0140384886428C464FF021
:100E6000000E39D094F83BB0D4E90A5A0027A1FB10
:100E70000001BBF1000F46D0CBF1200801FA08F8C1
:100E800020FA0BFCABF1200E21FA0EFE4CEA080C06
:100E90004CEA0E0C2D1821FA0BFEABF120094AEB9F
:100EA000010ACBF120080EFA0BF10CFA09F941EA1C
:100EB00009012CFA08F80CFA0BF02B1A41EA080188
:100EC00000936AEB01030193DDE90023BB4208BFF5
:100ED000B2420CD2C4E90A23D4E90C0110EB0C0095
:100EE00041EB0E01C4E90C0103B0BDE8F08F009B9B
:100EF0001CF1010C4EF1000E9A1B019B63EB0703E2
:100F0000C4E90A23E8E732463B4604F08BFF12EBC4
:100F1000050843EB0A09B94508BFB04584468E462B
:100F200002D2C4E90A89D7E710F1010C41F1000EA1
:100F3000B8EB060269EB0703E2E700BF40420F008F
:100F4000824206D98A420BD9884294BF00200120F0
:100F50007047884206D98A428CBF00200120704722
:100F600001207047002070472DE9F74FD0F804802A
:100F700098F83A300746002B40F0818098F83930D5
:100F8000002B7CD1FFF752FF7E683A6873680192AC
:100F9000002B66D0D6E90C01D3E90023994208BFA3
:100FA000904205D3019B5B6903B0BDE8F04F184741
:100FB000141A63EB0105D6E90623AB4208BFA2422F
:100FC000D6F8109006D3B2682E4B9A4219D1A1459B
:100FD00028BFA146326A019B9144F2681B6909EA65
:100FE00002021046019298473B685B689847019A55
:100FF0000146D8F82000FFF7A3FF00283FD03B6848
:10100000D1E796F83B30EBB1A3F1200CC3F12002FD
:1010100024FA02F204FA03F005FA03F104FA0CFCD4
:10102000194C41EA0C0111430019164A4FF0000413
:101030004FF0000344EB010104F0F4FE814528BFAA
:101040008146C7E71048A2FB04AB02FB05BB1AEBC5
:1010500000004FF000010B4A4FF000034BEB010181
:10106000EAE7D8F81030D8F82000D8F80C20184457
:10107000019B1B69104003B0BDE8F04F184703B057
:10108000BDE8F08F40420F003F420F002DE9F04FC6
:10109000436893F8382085B00546002A63D193F859
:1010A0003A30002B5FD103681B6898472B68DB69D7
:1010B000984703682BB92D4800931A461946FFF745
:1010C00065FB1F21012202FA01F4A3425FFA81FAB3
:1010D00002D00139F7D18A464668321F1C2A05D949
:1010E0000023234800931A461946E8E71C4614F1EA
:1010F000FF384FF000031F494FF0070743F1FF3956
:101100009740C1FB078922464046494604F08AFEC3
:101110006B682A6803934FF00008C3E9008852689F
:10112000894683469047039B0122186202FA06F61D
:101130006B6800210020013EC3E90A01C3E90C01EC
:10114000C3E903672846C3E906B99C6083F83BA05E
:101150001A8783F83A80FFF769FE284605B0BDE894
:10116000F04FFFF701BF05B0BDE8F08F0E0104801E
:101170000501048040420F0070B50446FFF762FA93
:101180002368DB689847636893F83A201AB1BDE892
:101190007040FFF761BA012283F8392063685B6809
:1011A000A3B12046FFF742FE65686E68D5E90C01E1
:1011B000D6E90023994208BF904207D3F3686B60D9
:1011C0002B68002BEAD0B0689847E7E763680022F5
:1011D00083F839202046FFF7C7FED8E738B5044624
:1011E000FFF754FFFFF72EFA2046FFF71FFE636854
:1011F000D3E90C45FFF730FA2046294638BD704741
:101200000048704704720008024B1B680BB102488B
:1012100018477047A002002004720008034B596A67
:101220005A6A521A8242FBD3704700BF000C00403A
:1012300030B591FAA1F391FAA1F1B3FA83F384687E
:101240005B000325B1FA81F105FA03F3490024EAB2
:1012500003038A401343836030BD30B591FAA1F394
:1012600091FAA1F1B3FA83F3C4685B000325B1FAE4
:1012700081F105FA03F3490024EA03038A4013438A
:10128000C36030BD012A02D0022A18BF0022FFF736
:10129000E4BF00002DE9F84300F00F023A4B1FFABB
:1012A00080F9C0F3031053F82270C1F3831801F0E2
:1012B00007060D46FFF770F8B8F10F0F0CBF0322B9
:1012C000424639460446FFF7B3FF022E28D0032ECC
:1012D00058D0711E4B424B4197FAA7F2B2FA82F2F4
:1012E00021685200032000FA02F221EA020197FA73
:1012F000A7F2B2FA82F252009340013E0B43012E54
:10130000236005D863682A074CBF3B43BB43636037
:10131000C5F3011239462046BDE8F843FFF7B2BFD6
:1013200019F0080FC5F3832217D03B0A93FAA3F1F3
:10133000B1FA81F1406A93FAA3F389004FF00F0CE0
:10134000B3FA83F30CFA01F19B0020EA010102FADF
:1013500003F30B4363620223BEE797FAA7F1B1FAE6
:1013600081F1036A89000F2000FA01F123EA0101EB
:1013700097FAA7F3B3FA83F39B0002FA03F30B4344
:101380002362E8E73346A7E7C072000838B500F0EB
:101390000F021F4BC0F3031053F822500C46FEF708
:1013A000FBFF95FAA5F2B2FA82F35A000168032313
:1013B000934095FAA5F2B2FA82F20B405200D34064
:1013C000013B012B1AD8E31E022B436809D82B439B
:1013D000032C43601AD101222946BDE83840FFF7AB
:1013E00051BF23EA0503012C4360F4D0022C0BD03B
:1013F00029460022BDE83840FFF72FBF04F0FD0367
:10140000012BE8D0052CF1D10222E5E7052CEEE70F
:10141000C07200084368094A9B0182B0D3581A6819
:10142000120706D5002201921A6801925A680192A9
:10143000019A1868C0F3401002B0704710080020ED
:101440004368034A9B01D3581868C0F3C010704723
:101450001008002003464068134A810110B41C683C
:101460008C5002EB80109A684260DA6882601A69D8
:10147000C2605A6902611A6A82610022C284C26132
:101480008284C2858285B3F91A20013205D10823EE
:101490005DF8044B436100F05ABDB3F918300133D5
:1014A0000CBF04230C23F3E7100800208160FFF732
:1014B000D1BF0000094B98420BD0A3F54C43984292
:1014C00009D003F55043984214BF4FF0FF3002207B
:1014D0007047002070470120704700BF0010014096
:1014E000F0B50E4685B04149044630461546FFF733
:1014F000B1FA3F4907462846FFF7ACFA014638469D
:10150000FFF786FA022E20600AD0032D08D0374953
:101510000220FFF79FFAB84244D13648FFF722F97C
:101520000127354B206898424FF000033CD10193CE
:10153000324B5A6C42F010025A645B6C03F0100399
:101540000193019BFFF7B6FF284960603046FFF723
:101550003DFA28462649FFF739FA701C03D00121CD
:101560003046FFF713FF691C03D001212846FFF71F
:101570000DFF00234FF41652C4E90223C4E90433DB
:101580002362268365832046FFF764FF5FB31C4B0D
:101590001C4801221A6021464C2205B0BDE8F040EB
:1015A00005F02EB80027BCE7174A90420FD002F58D
:1015B00050429042C6D10393104B5A6C42F0200225
:1015C0005A645B6C03F020030393039BBAE7029316
:1015D0000A4B1A6C42F400321A641B6C03F4003399
:1015E0000293029BAEE705B0F0BD00BF7872000821
:1015F00030720008007300080010014000380240FB
:1016000058070020C40700200044004038B5456852
:1016100004462046FFF7FEFE0028FAD0AD01034B3A
:101620005B595868C0F3080038BD00BF100800209F
:1016300070B5466805460C462846FFF701FF0028AE
:10164000FAD0034BB601C4F308049B595C6070BD2B
:1016500010080020DFF830D0002103E00B4B5B586E
:10166000435004310A480B4B42189A42F6D30A4AB7
:1016700002E0002342F8043B084B9A42F9D300F001
:10168000A9FCFEF7ABFD7047008001202C74000818
:10169000980100207006002070060020380A002003
:1016A000FEE7704708B50B4B1A6842F400721A60E7
:1016B0001A6842F480621A601A6842F480721A60F2
:1016C000032000F009F80F20FEF706FFFFF7E9FFFF
:1016D000002008BD003C02400749CA6822F4E062CD
:1016E0000302120403F4E063120C134343F0BF63DC
:1016F00043F40033CB60704700ED00E02DE9F34187
:10170000044618B9012002B0BDE8F0810368DD0786
:1017100010D4236898075BD423681A0700F19D80D2
:1017200023685B0700F1BB80A269002A40F01C819E
:101730000020E8E7A54B9A6802F00C02042A07D0C3
:101740009A6802F00C02082A0AD15A68510207D599
:101750009E4B1B689A03DCD56368002BD9D1D1E777
:101760006268B2F5803F11D11A6842F480321A6083
:10177000FEF7B8FE954E054633689B03C9D4FEF7C5
:10178000B1FE401B6428F7D90320BCE78F4DB2F5AA
:10179000A02F2B6807D143F480232B602B6843F4E0
:1017A00080332B60E4E723F480332B602B6823F431
:1017B00080232B60002ADBD1FEF794FE06462B68BF
:1017C0009F03A6D5FEF78EFE801B6428F7D9DBE7C2
:1017D0007E4B9A6812F00C0F07D09A6802F00C0248
:1017E000082A11D15B685E020ED4784B1A689507FF
:1017F00002D5E268012A85D11A68216922F0F8022F
:1018000042EAC1021A6087E7E268714BB2B1012275
:101810001A60FEF767FE6D4D06462B68980707D5E0
:101820002B68226923F0F80343EAC2032B6073E7B5
:10183000FEF758FE801B0228EFD9A5E71A60FEF7D5
:1018400051FE624E0546336899077FF565AFFEF796
:1018500049FE401B0228F6D996E762695D4B7AB1D2
:1018600001221A60FEF73EFE584E0546736F9F0731
:101870003FF556AFFEF736FE401B0228F6D983E748
:101880001A60FEF72FFE514E0546736F98077FF5DD
:1018900047AFFEF727FE401B0228F6D974E74B4BF3
:1018A0001A6C12F0805228D101921A6C42F08052C8
:1018B0001A641B6C03F080530193019B0127464D72
:1018C0002B68D9051BD5A368404D012B27D12B6F61
:1018D00043F001032B67FEF705FE3C4E054641F23F
:1018E0008838336F9B0739D5002F3FF41DAF374A37
:1018F000136C23F08053136416E70027DFE72B688F
:1019000043F480732B60FEF7EDFD06462B68DA0585
:10191000D9D4FEF7E7FD801B0228F7D934E7052B61
:1019200004D12B6F43F004032B67D0E72A6F22F01A
:1019300001022A672A6F22F004022A67002BCAD10B
:10194000FEF7D0FD41F2883806462B6F9807CBD5BD
:10195000FEF7C8FD801B4045F7D915E7FEF7C2FD2D
:10196000401B4045BDD90FE7184DAB6803F00C0391
:10197000082B3FF4C7AE194E0023022A336035D13D
:10198000FEF7B0FD07462B68990129D4D4E9073248
:101990001343626A43EA8213E26A43EA0263A26A79
:1019A0005208013A43EA02436B6001233360FEF7B9
:1019B00099FD064D04462B689A013FF5B9AEFEF736
:1019C00091FD001B0228F6D9DEE600BF0038024078
:1019D00000004742800E47420070004060004742CE
:1019E000FEF780FDC01B0228CDD9CDE6FEF77AFDBB
:1019F00004462B689B017FF59BAEFEF773FD001B31
:101A00000228F6D9C0E600BF134908B58B6803F079
:101A10000C03042B1CD0082B1CD14A684B68496866
:101A200013F4800314BF0D480D48C1F3881118BF8B
:101A3000002302F03F02A1FB000104F0F3F9064B82
:101A40005B68C3F3014301335B00B0FBF3F008BDF7
:101A50000248FCE70248FAE70038024000127A0028
:101A60000024F4002DE9F0410D46044610B9012090
:101A7000BDE8F081434B1A6802F00F028A4227D377
:101A8000226897072CD4D00740D43E4B1A6802F046
:101A90000F02AA4265D8226851076BD4130707D5F5
:101AA000394A2169936823F4604343EAC103936090
:101AB000FFF7AAFF344B354A9B68C3F30313D35C8B
:101AC000D840334B18600F20FEF706FD0020CFE70B
:101AD000CAB21A701B6803F00F038B42C7D1CFE75D
:101AE000294B12F0040F1EBF996841F4E051996030
:101AF000160742BF996841F4604199602249A06885
:101B00008B6823F0F00303438B60BCE762681E4BD5
:101B1000012A1CD11B6813F4003FA8D01A4EB368E9
:101B200023F003031343B360FEF7DCFC41F2883873
:101B30000746B368626803F00C03B3EB820FA4D0CE
:101B4000FEF7D0FCC01B4045F3D9032090E7911E5F
:101B500001291B6802D813F0007FDEE713F0020FA3
:101B6000DBE7EAB21A701B6803F00F03AB427FF4A5
:101B70007EAF90E70449E0688B6823F4E0530343A9
:101B80008B608BE7003C024000380240497300083C
:101B9000A4020020044B054A9B68C3F38223D35C54
:101BA000034A1068D8407047003802405973000853
:101BB000A4020020044B054A9B68C3F34233D35C64
:101BC000034A1068D8407047003802405973000833
:101BD000A40200200F2303600B4B9A6802F003025B
:101BE00042609A6802F0F00282609A6802F4E05261
:101BF000C2609B68DB0803F4E0530361034B1B687E
:101C000003F00F030B60704700380240003C0240B5
:101C100070470000224A036890420ED0B0F1804F16
:101C20000BD0A2F57C42904207D002F58062904230
:101C300003D002F58062904215D14A6823F0700308
:101C40001343174A904219D0B0F1804F16D0A2F535
:101C50007C42904212D002F5806290420ED002F592
:101C6000806290420AD00F4A904207D002F580620B
:101C7000904203D002F58062904203D1CA6823F4F7
:101C80004073134303608B68C3620B688362044B29
:101C9000984204BF0B69036301234361704700BF8F
:101CA000000001400040014010B50446A0B190F88A
:101CB000393003F0FF021BB980F83820FFF7A8FF86
:101CC0000223206884F83930211DFFF7A3FF012388
:101CD00084F83930002010BD0120FCE7036A10B5FC
:101CE00001248C4023EA04030362036A02FA01F12F
:101CF0000B43036210BD000010B5044601220068CA
:101D0000FFF7ECFF2368064A934202BF5A6C42F485
:101D100000425A641A6842F001021A60002010BDA5
:101D2000000001402DE9F8430368C1681A690446C0
:101D300022F440520A431A612569A268D968C06931
:101D40002A43656921F416412A4321F00C0102431C
:101D50000A43DA605A69A16922F440720A43B0F575
:101D6000004F5A61774A79D1934203D002F58062DD
:101D7000934243D1FFF71EFF636819254FF06408B3
:101D800068435B00B0FBF3F3B3FBF8F31F01FFF70D
:101D900011FF636868435B00B0FBF3F6FFF70AFFCF
:101DA000636868435B00B0FBF3F3B3FBF8F308FB35
:101DB0001363DB003233B3FBF8F35B0003F4F87614
:101DC000FFF7F8FE626868435200B0FBF2F9FFF7D4
:101DD000F1FE6368226868435B00B0FBF3F3B3FB7A
:101DE000F8F308FB1393DB003233B3FBF8F303F093
:101DF00007033B4433449360BDE8F883FFF7CAFE12
:101E0000636819254FF0640868435B00B0FBF3F387
:101E1000B3FBF8F31F01FFF7BDFE636868435B0087
:101E2000B0FBF3F6FFF7B6FE636868435B00B0FBF8
:101E3000F3F3B3FBF8F308FB1363DB003233B3FBBC
:101E4000F8F35B0003F4F876FFF7A4FE62686843DA
:101E50005200B0FBF2F9FFF79DFEBAE7934202D0C1
:101E6000394A93423FD1FFF7A5FE636819254FF029
:101E7000640868439B00B0FBF3F3B3FBF8F31E0167
:101E8000FFF798FE636868439B00B0FBF3F7FFF72A
:101E900091FE636868439B00B0FBF3F3B3FBF8F378
:101EA00008FB13731B013233B3FBF8F303F0F007A5
:101EB000FFF780FE626868439200B0FBF2F9FFF71B
:101EC00079FE6368226868439B00B0FBF3F3B3FBC1
:101ED000F8F308FB13931B013233B3FBF8F303F061
:101EE0000F033B4386E7FFF755FE636819254FF064
:101EF000640868439B00B0FBF3F3B3FBF8F31E01E7
:101F0000FFF748FE636868439B00B0FBF3F7FFF7F9
:101F100041FE636868439B00B0FBF3F3B3FBF8F347
:101F200008FB13731B013233B3FBF8F303F0F00724
:101F3000FFF730FE626868439200B0FBF2F9FFF7EA
:101F400029FEBEE70010014000140140704710B5A3
:101F5000044640B390F8393003F0FF021BB980F813
:101F60003820FFF7F3FF2268242384F83930D36840
:101F700023F40053D3602046FFF7D4FE23681A6988
:101F800022F490421A615A6922F02A025A61DA68F0
:101F900042F40052DA6000202023E06384F83930F4
:101FA00084F83A3010BD0120FCE77FB502210F23F1
:101FB000CDE901314FF48052002301A8CDE903326D
:101FC0000593FFF74FFDB0FA80F0400907B05DF8C8
:101FD00004FB00000F49D1F8883043F47003C1F8C6
:101FE00088300D4B1A68002042F001021A60986098
:101FF0001A6822F0847222F480321A60074A5A600A
:102000001A6822F480221A60D8604FF000638B6057
:10201000704700BF00ED00E000380240103000249F
:1020200010B58EB01D4B002400941A6C42F0805203
:102030001A641B6C1A4A03F080530093009B0194AE
:10204000136823F4404343F400431360136803F41C
:1020500040430193A042019B4FF0010302930CBF48
:102060004FF480334FF4A023039302224FF48003F4
:10207000CDE9082308214FF4A8730420CDE90A1301
:102080000723CDE90C0302A8FFF738FB18B9FFF7C7
:102090008CFF0EB010BD2046FBE700BF00380240A9
:1020A0000070004010B58EB000241A4B00941A6CDA
:1020B00042F080521A641B6C174A03F0805300935D
:1020C000009B0194136823F4404343F400431360DE
:1020D0001368039403F440430193019B0323029389
:1020E00001230593102306930A934FF4A871042348
:1020F000CDE90B130222072302A8CDE908240D9392
:10210000FFF7FCFA18B9FFF750FF0EB010BD2046DC
:10211000FBE700BF003802400070004008B5012016
:10212000FFF77EFF28B9FFF7BDFF10B90148FEF7A2
:1021300019FB08BD35730008174A1849936803F066
:102140000C03042B10B50DD0082B0DD0144B0B60D5
:10215000114B144A9B68C3F30313D25C0B68D34042
:102160000B6010BD104BF2E7546850685268630270
:10217000C2F388124CBF0C4B094B00F03F00B3FB7D
:10218000F0F35343044A5268C2F301420132520051
:10219000B3FBF2F3DBE700BF00380240A4020020EB
:1021A0000024F4004973000800127A00074B084A23
:1021B00013601A69910707D5DA68920704D56FF0A2
:1021C00002021A61FFF720B8704700BF000C004000
:1021D000D4080020004870476473000830B589B007
:1021E00001A903A8FFF7F6FCFFF7D4FC0023029334
:1021F0001E4B01901A6C1E4C42F008021A641A6CB5
:1022000002F008020292029A1A6A42F008021A6266
:102210001A6A22F008021A62069AA3F50B332360A9
:102220004FF0FF33E360134BF2B9B0FBF3F001382A
:10223000002560600E482561A5606561FFF734FDEB
:102240000D4B0E4A9B68C3F808210D4B4FF48022BA
:102250005A6007482946FFF74FFD2268D36823F0EC
:102260000203D36009B030BD4000DEE70038024011
:10227000D408002040420F0000ED00E0AD2100082E
:1022800000E100E004480268D36823F00203D36051
:102290000021FFF731BD00BFD4080020014B586A70
:1022A000704700BF000C0040054B1B686FF0020236
:1022B00058631A61DA6842F00202DA60704700BFC0
:1022C000D4080020064B1B686FF002021A615A699D
:1022D00042F002025A61DA6842F00202DA607047A4
:1022E000D4080020034B1A68D36823F00203D3609C
:1022F000704700BFD4080020024B1B686FF0020239
:102300001A617047D408002082B001900091009BB0
:10231000002B05D0019B9B68019A12681A6005E0AA
:10232000019B1A68019BDB6812041A6000BF02B0AF
:10233000704782B00190019B5B681A68019B1B6823
:102340001340002B01D0012300E00023184602B007
:10235000704700B583B001900B46ADF80230019B89
:102360001A460023136053609360D3601361536176
:102370009361019BBDF9022011461846FEF7FDFA54
:10238000019B184603B05DF804FB00B583B00190D3
:10239000019B1846FFF7CDFF0346184603B05DF8D2
:1023A00004FB00B583B001900B46ADF80230019BF1
:1023B0001A460023136053609360D3601361536126
:1023C0009361019BBDF9022011461846FEF7EAFA17
:1023D000019B184603B05DF804FB00B583B0019083
:1023E0000091019B00991846FFF78EFF00BF03B0D4
:1023F0005DF804FB10B584B001900B468DF80330F6
:10240000002303935849019A13465B0013449B0031
:102410000B4408331B78002B5BD19DF80330002B55
:1024200025D11C20FEF7CCFC03461C464E49019AE0
:1024300013465B0013449B000B44B3F9003019466C
:102440002046FFF786FF4849019A13465B00134474
:102450009B000B4404331C604349019A13465B0004
:1024600013449B000B44083301221A7028E09DF8A6
:102470000330012B24D11C20FEF7A2FC03461C468E
:102480003949019A13465B0013449B000B44B3F98E
:10249000003019462046FFF784FF3349019A13465E
:1024A0005B0013449B000B4404331C602E49019ACB
:1024B00013465B0013449B000B44083302221A703E
:1024C000019A13465B0013449B00274A134403936D
:1024D00045E02549019A13465B0013449B000B44D9
:1024E00008331B78012B0CD19DF80330002B08D149
:1024F000019A13465B0013449B001B4A1344039349
:102500002DE01949019A13465B0013449B000B44CC
:1025100008331B78022B0CD19DF80330012B08D116
:10252000019A13465B0013449B000F4A1344039324
:1025300015E00D49019A13465B0013449B000B44C0
:1025400008331B780A2B08D1019A13465B00134409
:102550009B00054A1344039301E000230393039B6C
:10256000184604B010BD00BFE002002000B585B0E1
:102570000190019B0293029B002B15D0029B1B7ABA
:102580000A2B08D1029B5B681846FDF7C5FF03467E
:102590008DF80F300BE0029B5B681846FFF7F5FEE5
:1025A00003468DF80F3002E000238DF80F309DF8C0
:1025B0000F30184605B05DF804FB00B585B00190FA
:1025C0000B468DF80330019B0393019B002B07D032
:1025D000039B5B689DF8032011461846FFF7FDFE3C
:1025E00000BF05B05DF804FB00B585B00190019B0C
:1025F0000393039B1B7A022B0BD1039B5B68002B7D
:1026000003D01C211846FEF7EDFB039B00221A7233
:102610000EE0039B1B7A012B0AD1039B5B68002B06
:1026200003D01C211846FEF7DDFB039B00221A7223
:1026300000BF05B05DF804FB08B50F4B1B785A1CB2
:10264000D1B20D4A1170002B09D00C4B01221A6037
:10265000094B1B78013BDAB2074B1A700BE062B6EC
:1026600000BF00F033FD72B600BF034B1B78013B87
:10267000DAB2014B1A7008BD600700205C07002029
:1026800000B583B0254B0193254B0093254B0022C9
:102690001A70254B00221A7001DFFFF703F801F0D2
:1026A000ACFBFFF749FD214B1B6800221A6000F0CC
:1026B000AFFF9DED010A01F019FC1C4B1B681B6864
:1026C000002B0CBF01230023DBB21A46164B1A70F5
:1026D00062B600BF15E0154B1B681B68002B14BFCA
:1026E00001230023DBB21A460E4B1A700D4B1B78E8
:1026F000DBB2002B0CBF01230023DBB21A460A4BCE
:102700001A70094B1B78DBB2002BE4D101F0F4F80E
:102710000023184603B05DF804FB00BF6F12833A34
:102720000000A84219090020180900206C73000855
:1027300010B586B0034604918DED020B01928DF821
:102740001730019B1B79012B02D0022B0BD044E0E8
:102750009DF81730002B4ED0019B03221A71049B69
:1027600001221A7047E0049B1B78002B0AD19DF8C8
:102770001730002B06D1019B01221A71049B012204
:102780001A703AE09DF81730002B06D0019B032207
:102790001A71049B01221A702FE0019B1C684FF0F4
:1027A0000002194BDDE9020102F0F4FF02460B467C
:1027B00043EC172BB0EE470AF0EE670A01F03CFC41
:1027C00053EC102B1046194603F0BCFA03469C420A
:1027D00013D3049B00221A700FE09DF81730002BD2
:1027E0000DD1019B02221A71019B00221A60049BE9
:1027F00001221A7003E000BF02E000BF00E000BF4A
:1028000000BF06B010BD00BF00408F4082B00190F5
:102810000091009B03221A71019B01221A7000BFD4
:1028200002B0704782B00190019B1B68B3F1FF3F7B
:1028300004D0019B1B685A1C019B1A6000BF02B0A8
:10284000704782B00190019B00221A60019B002218
:102850001A7100BF02B0704700B58BB08DED020B4E
:102860008DED001B9DED020B01F078FA0346002B65
:1028700006D19DED000B01F071FA0346002B05D047
:102880007E4BD3E90023CDE90823EBE0029B0693BE
:10289000039B23F000430793009B0493019B23F0C9
:1028A000004305939DED000B01F034FA0346002B25
:1028B00049D04FF00002724BDDE9060103F0D2F976
:1028C0000346002B05D04FF000026D4BCDE90823E5
:1028D000C8E04FF000026A4BDDE9060103F0EAF9B7
:1028E0000346002B17D04FF000024FF00003DDE944
:1028F000000103F0DFF90346002B05D0614BD3E95B
:102900000023CDE90823ADE04FF000024FF00003B3
:10291000CDE90823A6E04FF000024FF00003DDE907
:10292000000103F0C7F90346002B06D04FF0000268
:102930004FF00003CDE9082394E0524BD3E9002384
:10294000CDE908238EE04FF000024FF00003DDE9EF
:10295000040103F087F90346002B05D04FF0000275
:10296000474BCDE908237DE04FF00002444BDDE901
:10297000040103F077F90346002B1BD04FF000024F
:102980004FF00003DDE9000103F094F90346002B4A
:1029900004D0DDE90223CDE9082363E0DDE9022369
:1029A0004FF00000364903F01FF802460B46CDE910
:1029B000082357E04FF000024FF08043DDE90001AB
:1029C00003F050F90346002B0AD0DDE90223DDE9CC
:1029D000020102F0DFFE02460B46CDE9082341E08A
:1029E0004FF00002284BDDE9000103F03BF90346FC
:1029F000002B11D04FF000024FF00003DDE902017F
:102A000003F04EF90346002B06D09DED020B01F0BA
:102A1000E9FC8DED080B25E04FF000024FF00003BC
:102A2000DDE9020103F028F90346002B12D09DEDE9
:102A3000000B01F081FB53EC102BDDE9000103F0EA
:102A400039F90346002B05D00C4BD3E90023CDE91F
:102A5000082307E09DED001B9DED020B01F0F0FB4C
:102A60008DED080BDDE9082343EC172BB0EE470A88
:102A7000F0EE670A0BB05DF804FB00BF080A002007
:102A80000000F03F000A00200000E03F00B585B0E4
:102A90008DED000B0098019B23F000414FF00002E8
:102AA0002E4B03F0E9F80346002B48D04FF000020C
:102AB0002B4BDDE9000103F0F3F80346002B13D0A4
:102AC0004FF00002264BDDE9000102F0ADFC0246AA
:102AD0000B4643EC172BB0EE470AF0EE670A01F005
:102AE0002BFB8DED020B2EE04FF000021D4BDDE9BC
:102AF000000103F0DFF80346002B0CD04FF000027A
:102B00004FF00003DDE9000102F044FE02460B46EF
:102B1000CDE9022317E04FF00002114BDDE900017F
:102B200002F080FC02460B4643EC172BB0EE470A3E
:102B3000F0EE670A01F080FA8DED020B03E0DDE9AB
:102B40000023CDE90223DDE9022343EC172BB0EE8D
:102B5000470AF0EE670A05B05DF804FB0000304359
:102B60000000E03F0000E0BF00B585B000238DF815
:102B70000F3000238DF80E30B14B93F8A730012BA6
:102B800003D0022B00F01E8233E2AD4B93F8B73036
:102B9000002B16D1AA4B002283F8A820A84B0222B2
:102BA00083F8A720A74B00229A70A64B0022DA7068
:102BB000A34B002283F8B820A14B0122C3F8982030
:102BC00052E29F4B93F8A830032B00F0C980032BEF
:102BD00000F3FE80012B02D0022B6BD0F8E0984B63
:102BE00093F8BC30002B4AD1964B0022DA70944BFC
:102BF000022283F8A820924B012283F8B820904B40
:102C0000D3E924014FF000028F4B02F00BFC024687
:102C10000B4643EC172BB0EE471AF0EE671A9FED08
:102C2000860BFFF719FE53EC102B4FF0000087497D
:102C300002F0DAFE02460B4643EC172BB0EE470AD1
:102C4000F0EE670AFFF722FF8DED000B4FF0000258
:102C50007F4BDDE9000103F00FF80346002B08D09D
:102C6000DDE9000103F046F80346754AC2F89830E2
:102C7000A2E1734B6FF00042C3F898209CE1704BC7
:102C8000B3F8A03042F20F72934240F295816C4B40
:102C9000002283F8A8206A4B032283F8A720694BFF
:102CA00001229A70674B0022DA70654B002283F88C
:102CB000B82081E1624B93F8BC30002B0BD0604B05
:102CC000012283F8A8205E4B0022A3F8A0205D4BD0
:102CD0000122DA7072E15A4B93F8BA30002B1BD103
:102CE000574BD3E924014FF000025A4B02F0C4FFC6
:102CF0000346002B10D0524BD3E924014FF00002C1
:102D0000514B02F091FB02460B464D49C1E9242389
:102D100001238DF80E3051E1494B93F8BB30002B65
:102D200040F04C81464BD3E924014FF000024FF0B4
:102D3000000302F0BFFF0346002B00D13EE1404BF1
:102D4000D3E924014FF000023F4B02F06BFB024637
:102D50000B463B49C1E9242301238DF80E302DE1B8
:102D6000374B93F8BC30002B12D0354B002283F840
:102D7000A820334B032283F8A720324B01229A70FC
:102D8000304B0022DA702E4B002283F8B82017E176
:102D90002B4B93F8BA30002B40F01281284BD3E92B
:102DA00024014FF00002284B02F03EFB02460B4686
:102DB0002349C1E92423224B042283F8A820204B75
:102DC0000022A3F8A0201E4B002283F8B920F7E0D0
:102DD0001B4B93F8BA30002B1BD1194BD3E92401BC
:102DE0004FF000021B4B02F047FF0346002B10D0B0
:102DF000134BD3E924014FF00002134B02F014FBF4
:102E000002460B460E49C1E9242301238DF80F30F9
:102E1000D1E00B4B93F8BC30002B1DD0084B0122A6
:102E200083F8A820064B0022A3F8A020054B01221E
:102E3000DA70C6E0AFF30080000000000000004040
:102E400028090020200900200000F03F00409F409A
:102E50000000E04100001040974B93F8BB30002B7E
:102E60001CD1954BD3E924014FF000024FF0000331
:102E700002F020FF0346002B10D08F4BD3E9240132
:102E80004FF000028D4B02F0CDFA02460B468A4904
:102E9000C1E9242301238DF80F308CE0864B93F891
:102EA000B930002B53D0844BD3E924014FF00002FA
:102EB0004FF0000302F0D6FE0346002B47D17E4BB5
:102EC000022283F8A8207C4B012283F8B8207A4B99
:102ED000D3E924014FF00002784B02F0A3FA024636
:102EE0000B4643EC172BB0EE471AF0EE671A9FED36
:102EF000700BFFF7B1FC53EC102B4FF00000704942
:102F000002F072FD02460B4643EC172BB0EE470A67
:102F1000F0EE670AFFF7BAFD8DED000B4FF00002EF
:102F2000684BDDE9000102F0A7FE0346002B08D044
:102F3000DDE9000102F0DEFE03465F4AC2F8983088
:102F400039E05D4B6FF00042C3F8982033E05A4BF4
:102F500093F8B930002B1FD0574BD3E924014FF021
:102F600000024FF0000302F07DFE0346002B13D059
:102F7000514B032283F8A8204F494FF000024FF035
:102F80000003C1E924234C4B002283F8B8204A4BAC
:102F90000022C3F898200EE0474BB3F8A03041F26E
:102FA000873293428CBF01230023DBB21A46424B87
:102FB00083F8B92005E004E000BF55E000BF53E00E
:102FC00000BF51E0404B00229A703B4B93F8B73062
:102FD000002B46D1384B032283F8A7203A4B01221D
:102FE0009A70394B0022DA70334B002283F8B820F4
:102FF00037E0354B01229A702F4B93F8BC30002BF1
:1030000017D12D4B012283F8A7202B4B032283F8E5
:10301000A82029494FF000024FF00003C1E9242302
:10302000254B002283F8B820234B0022C3F89820B8
:1030300019E0214B93F8B730002B14D11E4B02221C
:1030400083F8A720204B00229A701F4B0022DA70D1
:10305000194B002283F8B820174B0122C3F898209F
:1030600001E000BF00E000BF9DF80E30002B0BD048
:10307000114B042283F8A8200F4B0022A3F8A020B4
:103080000D4B002283F8B9209DF80F30002B0BD098
:10309000094B042283F8A820074B0022A3F8A020A4
:1030A000054B002283F8B92000BF05B05DF804FB92
:1030B0000000000000000040280900200000F03F50
:1030C00000409F400000E0412009002010B582B080
:1030D000B44BD3E91601B44BD3E9042302F0C2FD8B
:1030E0000346002B05D1B04BD3E90423AD49C1E918
:1030F0001623AC4B5B6D1846FFF738FA03468DF884
:103100000730A84BD3E91001A74BD3E9062302F0FF
:10311000A9FD0346002B05D1A34BD3E90623A14902
:10312000C1E910239F4BDB6B1846FFF71FFA0346DC
:103130001A469E4B5A709B4BD3E90A019A4BD3E92E
:10314000082302F08FFD0346002B05D1964BD3E9EF
:1031500008239449C1E90A23924B5B6A1846FFF79A
:1031600005FA03461A46914B1A708E4BD3E90401B7
:103170008D4BD3E90A2302F075FD0346002B05D1E0
:10318000894BD3E90A238749C1E90423854BDB68CE
:103190001846FFF7EBF903468DF80630814BB3F87C
:1031A000A03043F6FE72934207D87E4BB3F8A030AE
:1031B00001339AB27B4BA3F8A0207A4BB3F8A2302C
:1031C00040F2FE32934207D8764BB3F8A230013377
:1031D0009AB2744BA3F8A220724BD3F89C30B3F18F
:1031E000FF3F06D06F4BD3F89C3001336D4AC2F8D5
:1031F0009C306F48FFF716FB6E48FFF713FB694BD7
:10320000B3F8A430B3F5FF7F07D8664BB3F8A4300A
:1032100001339AB2634BA3F8A420624B93F8A63013
:10322000002B49D15F4B012283F8A6205D4B02227F
:1032300083F8A7205D4B00229A705C4B0022DA7065
:10324000584B002283F8B820564B0122C3F898202F
:10325000544B012283F8A92056495748FFF7D6FA64
:10326000504B012283F8AA204E4B022283F8AF2054
:103270004C4B012283F8BC204A4B012283F8AB203F
:10328000484B032283F8AC20464B012283F8B72039
:10329000444B012283F8AD2045494848FFF7B6FA70
:1032A000404B012283F8AE203E4B0022C3F89C2005
:1032B00000238DF8073085E1FFF756FC3B4B5B7828
:1032C000394A92ED007B3B4AB0EE470AF0EE670ABE
:1032D00039491846FFF72CFA324B93F8AF30012BDF
:1032E0001FD19DF80630002B08D02E4B022283F808
:1032F000AF202C4B012283F8BC2022E0294BB3F8ED
:10330000A430B3F5FA7F06D2264B93F8BC30002BDD
:1033100001D0012300E00023DAB2224B83F8BC2065
:103320000FE09DF80630002B0BD11E4B012283F8D5
:10333000AF201C4B0022A3F8A4201A4B012283F8D3
:10334000BC20184B93F8AC30013B042B00F2848076
:1033500001A252F823F000BF6D3300088933000842
:10336000C1330008DB330008F53300089DF807304F
:10337000002B00F0A2800B4B032283F8AC20094BFA
:10338000012283F8B72098E09DF80730002B00F069
:103390009680044B042283F8AC20024B012283F870
:1033A000B7208CE028090020A80200202009002076
:1033B000E8090020F0090020E2090020E3090020CC
:1033C0009DF80730002B7CD18C4B062283F8AC2073
:1033D0008A4B0022A3F8A22073E09DF80730002B4F
:1033E00071D1864B052283F8AC20844B0022A3F8D0
:1033F000A22068E09DF80730002B0DD17F4B93F899
:10340000B730002B08D17D4B012283F8AC207B4BD9
:10341000012283F8B72057E09DF80730002B08D031
:10342000764B042283F8AC20744B012283F8B7203A
:103430004AE0724BB3F8A230B3F57A7F06D26F4BF5
:1034400093F8B730002B01D0012300E00023DAB25B
:103450006A4B83F8B72037E09DF80730002B0DD179
:10346000664B93F8B730002B08D1644B022283F8E7
:10347000AC20624B012283F8B72025E09DF807308D
:10348000002B08D05D4B032283F8AC205B4B01225C
:1034900083F8B72018E0594BB3F8A230C72B06D8F1
:1034A000564B93F8B730002B01D0012300E00023E6
:1034B000DAB2524B83F8B72006E000BF04E000BF49
:1034C00002E000BF00E000BF4D4B1B784D4A92ED7B
:1034D000027B4D4AB0EE470AF0EE670A4B491846A8
:1034E000FFF726F9454B93F8AE30012B35D1002379
:1034F0008DF80730414BD3F89C40404BD3F89830BF
:10350000184602F0DDF84FF000024FF0804302F061
:103510006BFA02460B4643EC172BB0EE470AF0EE6F
:10352000670AFFF7B3FA53EC102B1046194602F066
:1035300009FC03469C4245D3304B93F8B830002B2E
:1035400040D02E4B022283F8AE202C4B0022C3F831
:103550009C2001238DF8073034E001238DF80730DB
:10356000264B93F8B830002B21D0244BD3F89C4045
:10357000224BD3F89830184602F0A2F84FF0000220
:103580004FF0804302F030FA02460B4643EC172B13
:10359000B0EE470AF0EE670AFFF778FA53EC102B0B
:1035A0001046194602F0CEFB03469C420AD3134B49
:1035B000012283F8AE20114B0022C3F89C20002387
:1035C0008DF807300D4BD3F88C300D4A92781146A8
:1035D0001846FEF7F2FF094BDB6F094AD278114615
:1035E0001846FEF7EAFF054BDB6E9DF807201146F3
:1035F0001846FEF7E2FF00BF02B010BD2809002008
:1036000020090020A8020020E8090020E30900208A
:1036100000B585B0082000F039FBAB4B00221A60E2
:1036200007220021A94802F0F9FFD0220021A84872
:1036300002F0F4FFA64B002283F84820A44B01229D
:1036400083F8B620A34BD3E90423A149C1E916238B
:10365000A14B03939E4B0122DA643823029300218D
:103660000298FEF7C7FE0246039BDA60984B0122E0
:1036700083F85020964B002283F83020944B01228F
:1036800083F8B520934BD3E906239149C1E9102370
:10369000924B03938E4B01225A632E2302930021F7
:1036A0000298FEF7A7FE0246039BDA60884B0122D0
:1036B00083F83820864B00221A76854B012283F846
:1036C000B420844BD3E908238149C1E90A23844B00
:1036D00003937F4B0122DA612F230293002102988A
:1036E000FEF788FE0246039BDA60794B012283F8DD
:1036F0002020774B00221A70754B012283F8B320EB
:10370000744BD3E90A237249C1E90423704B039334
:103710006F4B01225A603523029300210298FEF775
:1037200069FE0246039BDA60694B01221A72694BFB
:1037300093F83020664B83F8BA20664B93F831201B
:10374000634B83F8BB20634B93F83220604B83F8C4
:10375000BC205F4B002283F880205D4B012283F860
:10376000B220604B01935A4B0122C3F884200D23F1
:10377000029301210298FEF73DFE0246019BDA60AA
:10378000534B012283F88820514B002283F870208C
:103790004F4B012283F8B120534B01934C4B012234
:1037A0005A670B23029301210298FEF723FE02467B
:1037B000019BDA60464B012283F87820444B0022BB
:1037C00083F86020424B012283F8B020474B0193DD
:1037D0003F4B01225A660C23029301210298FEF707
:1037E00009FE0246019BDA60394B012283F868200A
:1037F0003F48FFF726F83F48FFF723F8344B0022F5
:10380000A3F8A420324B002283F8AF20304B0022D3
:1038100083F8A7202E4B002283F8A8202C4B0022EF
:10382000A3F8A0202A4B002283F8AC20284B0022CA
:1038300083F8AB20264B0022A3F8A220244B0022C1
:1038400083F8A920224B002283F8AD20204B0022D0
:1038500083F8AA201E4B002283F8AE201C4B0022C6
:10386000C3F89C201A4B002283F8A620184B002294
:1038700083F8B720164B002283F8BC20144B00229B
:1038800083F8BB20124B002283F8BA20104B002291
:1038900083F8B8200E4B0022C3F898200C494FF053
:1038A00000024FF00003C1E92423094B002283F8F2
:1038B000B920064B00229A70044B0022DA7000BF38
:1038C00005B05DF804FB00BF64070020200900205C
:1038D00028090020A80200207009002058090020B3
:1038E00040090020A809002098090020880900202C
:1038F000E8090020F009002008B5504B93F8483043
:10390000002B11D14D4B012283F848204B4BDB6C2F
:10391000012B09D1494B93F85030002B04D0474B71
:103920005B6D1846FEF760FE444B93F83030002B79
:1039300011D1424B012283F83020404B5B6B012BAD
:1039400009D13E4B93F83830002B04D03B4BDB6B56
:103950001846FEF749FE394B1B7E002B10D1374B22
:1039600001221A76354BDB69012B09D1334B93F8D1
:103970002030002B04D0314B5B6A1846FEF734FE32
:103980002E4B1B78002B0FD12C4B01221A702B4B86
:103990005B68012B08D1294B1B7A002B04D0274BE5
:1039A000DB681846FEF720FE244B93F88030002B8E
:1039B00013D1224B012283F88020204BD3F884308E
:1039C000012B0AD11D4B93F88830002B05D01B4BDF
:1039D000D3F88C301846FEF707FE184B93F870307A
:1039E000002B11D1154B012283F87020134B5B6F14
:1039F000012B09D1114B93F87830002B04D00F4BD9
:103A0000DB6F1846FEF7F0FD0C4B93F86030002B8F
:103A100011D10A4B012283F86020084B5B6E012B09
:103A200009D1064B93F86830002B04D0034BDB6EB2
:103A30001846FEF7D9FD00BF08BD00BF28090020C9
:103A400000B589B0402305934FF000024FF000030A
:103A5000CDE90623059B202B0BD100F03DF810EE9D
:103A6000103A184601F03EFE02460B46CDE9062309
:103A700024E00123ADF8103004AB1B78012B14BFF8
:103A800001230023DBB28DF813309DF81330002B97
:103A900002D0012B09D011E00E4B039300230293B7
:103AA000DDE90223CDE9062308E00A4B0093002359
:103AB0000193DDE90023CDE9062300BFDDE90623FC
:103AC00043EC172BB0EE470AF0EE670A09B05DF839
:103AD00004FB00BF0000F07F82B04FF0FF43019372
:103AE000019B07EE903AB0EE670A02B07047000003
:103AF00000B589B0402305934FF000024FF000035A
:103B0000CDE90623059B202B0BD100F03DF810EEEC
:103B1000103A184601F0E6FD02460B46CDE90623B1
:103B200024E00123ADF8103004AB1B78012B14BF47
:103B300001230023DBB28DF813309DF81330002BE6
:103B400002D0012B09D011E00E4B03930023029306
:103B5000DDE90223CDE9062308E00A4B00930023A8
:103B60000193DDE90023CDE9062300BFDDE906234B
:103B700043EC172BB0EE470AF0EE670A09B05DF888
:103B800004FB00BF0000F0FF82B0044B0193019BD7
:103B900007EE903AB0EE670A02B07047000080FF6F
:103BA00000B589B0402305934FF000024FF00003A9
:103BB000CDE90623059B202B0BD100F03FF810EE3A
:103BC000103A184601F08EFD02460B46CDE9062359
:103BD00026E00123ADF8103004AB1B78012B14BF95
:103BE00001230023DBB28DF813309DF81330002B36
:103BF00002D0012B09D013E00F4B03930023029353
:103C0000DDE90223CDE906230AE06FF000430093CB
:103C10004FF0FF330193DDE90023CDE9062300BF18
:103C2000DDE9062343EC172BB0EE470AF0EE670AF6
:103C300009B05DF804FB00BF0000F8FF84B04FF04E
:103C4000000302930123ADF806300DF106031B7843
:103C5000012B14BF01230023DBB28DF80F309DF838
:103C60000F30002B02D0012B03D006E0064B02934D
:103C700003E06FF00043029300BF029B07EE903A0F
:103C8000B0EE670A04B070470000C0FF00B583B013
:103C90000190FFF785FFB0EE407AF0EE607A174BA7
:103CA00083ED007BFFF7CAFFF0EE407A144BC3EDC3
:103CB000007AFFF7C5FEB0EE407AF0EE607A114B65
:103CC00083ED007BFFF708FFF0EE407A0E4BC3ED6B
:103CD000007AFFF70DFFB0EE407AF0EE607A0B4B02
:103CE00083ED007BFFF750FFF0EE407A084BC3ED09
:103CF000007A00BF03B05DF804FB00BF080A002093
:103D0000F8090020000A0020FC090020100A002009
:103D1000180A002000B583B08DED000B0D4BD3E9E0
:103D20000023DDE9000101F09DFF0346002B09D1CE
:103D3000094BD3E90023DDE9000101F093FF0346BD
:103D4000002B01D0012300E00023184603B05DF8EA
:103D500004FB00BF000A0020100A002000B587B055
:103D60008DED000B00238DF8173040230493049B46
:103D7000202B0CD1DDE9000102F004F8034600EE2F
:103D8000103A00F023F803468DF8173016E0DDE90D
:103D90000023CDE90223039A0B4B13400A4A9342B6
:103DA00009D1039BC3F31303002B02D1029B002B09
:103DB00001D0012300E000238DF817309DF8173063
:103DC000184607B05DF804FB0000F07F84B08DED6D
:103DD000010A019B0393039B03F0FF43B3F1FF4FE1
:103DE00006D1039BC3F31603002B01D0012300E08F
:103DF0000023DBB2184604B0704700BF70470000D4
:103E000082B0034600918DF807309DF90730002BF2
:103E10000ADB009BDAB20C499DF907301201D2B2DD
:103E20000B4483F800230BE0009BDAB207499DF8AE
:103E3000073003F00F03043B1201D2B20B441A7691
:103E400000BF02B0704700BF00E100E000ED00E0FD
:103E500000B583B00190019B013BB3F1807F01D39A
:103E600001230FE0094A019B013B53600F214FF0F2
:103E7000FF30FFF7C5FF054B00229A60034B072276
:103E80001A600023184603B05DF804FB10E000E060
:103E900008B5BFF34F8F00BFBFF36F8F00BF0C4B50
:103EA0001A680C4B1B689A4202D3094B00221A6015
:103EB000074B1B685A1C06490A60002B05D172B6D5
:103EC00000BFFEF7B9FB62B600BF00BF08BD00BF70
:103ED000200A00201C0A0020034B5B68024A43F0C2
:103EE0008053536000BF704700ED00E000B585B01F
:103EF0008DED010A224B1B6807EE903AB8EE677A07
:103F0000DDED017A67EE277AFCEEE77A17EE903A5C
:103F10000393039BB3F1807F18D3039B07EE903A82
:103F2000B8EE677ADFED176AC7EE267AFCEEE77A1D
:103F300017EE903A0133144A1360134B1B68039A2F
:103F4000B2FBF3F31846FFF783FF05E00E4B0022A8
:103F50001A600398FFF77CFF0C4B00221A600C4A92
:103F60000C4B1A600F216FF00400FFF749FF0F217F
:103F70006FF00100FFF744FF00BF05B05DF804FBE0
:103F8000A4020020FFFF7F4B1C0A0020200A002013
:103F9000913E0008240A0020EFF3008001B5EFF302
:103FA000118003B41EF0100F08BFB0EE400A0A489B
:103FB000006803B488B004A006904FF080700790AA
:103FC0006FF006008646704703BC8047BFF36F8FD3
:103FD00000DFFEE700BF0000240A00201EF0100FE3
:103FE00008BFB0EE400A1EF0040F0CBFEFF30880CC
:103FF000EFF30980816911F8020C10B101280DD08E
:104000000BE01EF0100F0CBF1AB008B003BC80F319
:10401000118803BC80F300880847FEE74EF6145170
:10402000CEF200010A6842F001020A607047F4E72C
:1040300000BF00BF0000000051EC100BF8B5C1F349
:104040000A53A3F2FF35132D10EE106A0C4632DC32
:10405000002D1EDB364F2F4101EA070303432FD00B
:1040600031A3D3E9002301F0DFF90022002301F09E
:1040700021FE48B1002C04DD4FF4801343FA05F50E
:104080002C4424EA070400262346324643EC102B36
:10409000F8BD25A3D3E9002301F0C6F900220023CF
:1040A00001F008FE0028EFD0002C39DB264333D086
:1040B000204C0026E8E7332D05DDB5F5806F23D0D1
:1040C00041EC100BF8BDA3F213434FF0FF37DF4074
:1040D0000742F5D014A3D3E9002301F0A5F900228B
:1040E000002301F0E7FD0028CED0002C09DD142DBF
:1040F00014D00123C5F1340503FA05F5AE1928BF24
:10410000E41826EA0706BFE710EE102A0B4601F076
:104110008BF941EC100BF8BD3446B5E70134F0E7FC
:1041200000264FF00044AFE79C7500883CE4377EE2
:10413000FFFF0F000000F03F51EC100BF8B5C1F38A
:104140000A53A3F2FF35132D10EE106A0C4620DC43
:10415000002D3DDB384F2F4101EA070303431DD0FB
:1041600033A3D3E9002301F05FF90022002301F01B
:10417000A1FD48B1002C04DA4FF4801343FA05F591
:104180002C4424EA070400262346324643EC102B35
:10419000F8BD332D05DDB5F5806F29D041EC100B4E
:1041A000F8BDA3F213434FF0FF37DF400742F5D0CD
:1041B0001FA3D3E9002301F037F90022002301F007
:1041C00079FD0028E0D0002C23DB26EA0706DBE798
:1041D00017A3D3E9002301F027F90022002301F0FF
:1041E00069FD0028D0D0002C0ADB00263446CBE73E
:1041F00010EE102A0B4601F017F941EC100BF8BD38
:1042000024F000430D4A1E43002E18BF144600261A
:10421000BAE7142D08D00123C5F1340503FA05F5DA
:10422000AE1928BFE418D0E70134CEE7AFF3008021
:104230009C7500883CE4377EFFFF0F000000F0BF54
:10424000F8B52DED028B57EC106B55EC114B00F0CF
:1042500003F9634BB0EE408AF0EE608A93F90030C8
:1042600001332AD022462B462046294601F02CFD58
:1042700018BB32463B463046394601F025FD002842
:1042800044D1002200233046394601F0EBFCD8B17E
:10429000002200232046294601F0E4FC00283DD1FD
:1042A00045EC104B00F080FF38B120462946002233
:1042B000002301F0E1FC00285CD1B0EE480AF0EEEA
:1042C000680ABDEC028BF8BDB0EE480AF0EE680A51
:1042D00000F06AFF58B351EC180B0022002301F0E4
:1042E000C1FC0028E9D047EC106B00F05DFF00280E
:1042F000E3D045EC104B00F057FF0028DDD001F073
:104300000DFF22239FED2E8B0360D6E72046294622
:104310000022002301F0A6FC0028CED09FED2A8BBE
:10432000B0EE480AF0EE680ABDEC028BF8BD47EC2F
:10433000106B00F039FF0028CDD045EC104B00F099
:1043400033FF0028C7D053EC182B18EE100A19467B
:1043500001F0BAFC20BB01F0E1FE034622221A6004
:10436000304639460022002301F086FC48B99FED13
:10437000188BA2E701F0D2FE21239FED178B03607B
:104380009BE745EC104B00F023FF224651EC100B4D
:104390002B4601F067FC0028E9D19FED0F8B8CE7DD
:1043A00001F0BCFE002200232121016010461946C5
:1043B00001F01AFB41EC180B7FE700BFAFF3008060
:1043C0000000000000000000000000000000F03FBE
:1043D000000000000000F07F000000000000F0FF7F
:1043E000F805002038B52DED028B55EC104B00F090
:1043F0000DFE184BB0EE408AF0EE608A93F9003063
:1044000001330DD022462B462046294601F05CFCA4
:1044100030B9204629460022002301F02DFC30B996
:10442000B0EE480AF0EE680ABDEC028B38BD01F030
:1044300075FE00220023212101601046194601F07B
:10444000D3FA41EC180BB0EE480AF0EE680ABDEC66
:10445000028B38BDF80500202DE9F04F57EC116BA9
:104460002DED0A8B27F0004A5AEA060289B03DD0AA
:1044700055EC104B764925F00048884510EE102A7F
:10448000A9462CDC11EE103ABB463AD08A4526DC10
:104490006F498A4521D0B9F1000F3DDB002103911E
:1044A000002B55D16A4B9A4500F0A880694B9A457C
:1044B00000F0B680BBF1804F00F00185664B9B4554
:1044C00046D1B9F1000F43DB45EC104B09B0BDEC10
:1044D0000A8BBDE8F04F00F099BD002BDBD008F14E
:1044E000404808F5801858EA02030DD19FED547B2F
:1044F0008DED007B9DED000B09B0BDEC0A8BBDE896
:10450000F08F0CB9C245C3DD544809B0BDEC0A8B2D
:10451000BDE8F04F00F054BE51498A4500F3878052
:10452000A1F154718A450FDD4FEA2A51A1F2FF3102
:10453000142940F3CE84C1F1340123FA01F000FACA
:1045400001F1994200F0208500210391002BADD0AC
:1045500045EC104B069200F01DFE069A8DED000B07
:104560005ABBB8F1000F04D03A4B29F040429A42AE
:1045700023D1BBF1000F07DADDE900233549002024
:1045800001F032FACDE90001B9F1000FB2DA039B74
:1045900008F1404808F5801858EA030340F0BE844B
:1045A000DDE900231046194600F03CFF02460B46A9
:1045B00001F01AFACDE900019CE7039A4FEAD9739A
:1045C000013B0693134335D0264B9A454EDD03F14C
:1045D00004739A45244B40F3ED83984540F36B8375
:1045E000BBF1000F40F36B8317A3D3E90023104600
:1045F000194601F0CFF8CDE900017BE708F140430F
:1046000003F5801313433FF471AF174B984540F304
:104610008883BBF1000FC0F25283CDE9006769E7E0
:10462000BBF1000FC0F24184CDE9004562E70221F1
:10463000039135E722462B46B4E700BFAFF3008075
:10464000000000000000F03F9C7500883CE4377ECD
:104650000000F07F0000F03F0000E03F70730008B2
:10466000FFFF3F430000E041FFFFEF3FE44B09EA5B
:104670000303002B40F01684DDE90001E14B00222A
:1046800001F088F8CDE90001DDF804806FF0340016
:104690004FEA2853DC49C8F31302A3F2FF3342F078
:1046A0007F5818188A42079048F4401840F3E9836D
:1046B000D64B9A4240F33E849FEDBB7BB0EE47BAA7
:1046C000F0EE67BAB0EE47CAF0EE67CA9FEDB87B6E
:1046D000013054EC173B0790A8F580184FF0000903
:1046E000DDE900AB44EC183B1A46504623464146F0
:1046F00000F098FE53EC182B04460D4650464146F8
:1047000000F092FE02460B460020C14901F06CF910
:1047100045EC1A4B41EC190B51EC1A0B53EC192BCD
:1047200001F038F8C3464FEA680848F0005808F529
:10473000002303EB09050A4600230146CDE90012D8
:104740000093DDE900890024CDE904122B462246BE
:104750004046494601F01EF802460B4651EC1A0B42
:1047600000F060FE41EC170B53EC182B2046294655
:1047700055EC174B00F056FE02460B465046594684
:1047800000F050FE42464B4601F004F802460B464C
:104790002046294600F046FE53EC192B00F0FAFFA4
:1047A000DDE904AB04460D4652465B465046594689
:1047B00000F0F0FF80A3D3E9002345EC1A4B044638
:1047C0000D4600F0E7FF7EA3D3E9002300F02CFEA6
:1047D00022462B4600F0DEFF7BA3D3E9002300F046
:1047E00023FE22462B4600F0D5FF79A3D3E9002310
:1047F00000F01AFE22462B4600F0CCFF76A3D3E948
:10480000002300F011FE22462B4600F0C3FF74A3E4
:10481000D3E9002300F008FE22462B4604460D464D
:104820001046194600F0B6FF02460B4620462946C0
:1048300000F0B0FF424604460D464B4650465946EE
:10484000CDE904AB00F0F0FD53EC1A2B00F0A2FF11
:1048500022462B4600F0E8FD424604460D464B46F4
:104860004046494600F096FF45EC194B694B002243
:1048700082468B4600F0D8FD53EC192B00F0D4FD96
:10488000009C0D4622462B464046494600F082FFDA
:10489000604B8046894600222046294600F0C2FD32
:1048A00052465B4600F0BEFD02460B4651EC190B2A
:1048B00000F0B8FDDDE9042300F06CFF49EC188B33
:1048C0002246804689462B4651EC1A0B00F062FFC7
:1048D00002460B464046494600F0A6FD82468B46FE
:1048E00052465B4651EC180B00F09EFD009C3EA327
:1048F000D3E9002320460D4600F04CFF53EC182B63
:10490000804689462046294600F08CFD02460B462B
:104910005046594600F086FD35A3D3E9002300F048
:1049200039FF49EC198B34A3D3E90023804689462B
:104930002046294600F02EFF02460B4640464946D7
:1049400000F072FD53EC1C2B00F06EFD82460798C0
:104950008B4600F0B5FE5246804689465B4651ECD8
:10496000190B00F061FD53EC1B2B00F05DFD42467E
:104970004B4600F059FD009C42464B4620460D46F2
:1049800000F050FD53EC1B2B00F04CFD53EC192BA9
:1049900000F048FD02460B465046594600F042FDE5
:1049A00082468B4638E000BF000000000000000097
:1049B000000000000000F03FEF4E454A287ECA3F4D
:1049C00065DBC9934A86CD3F01411DA96074D13F83
:1049D0004D268F515555D53FFFAB6FDBB66DDB3F95
:1049E000033333333333E33F000000E009C7EE3FC6
:1049F000FD033ADC09C7EE3FF5015B14E02F3EBE34
:104A00000000F07F000040438E98030079B60B0051
:104A10000000F03F00000840039B069A013B13434F
:104A200040F078819FEDC47BB0EE479AF0EE679A34
:104A30000023CDE900670093DDE900893046424656
:104A400039464B4600F0EEFC22462B4600F0A2FE13
:104A500032463B4606460F465046594600F09AFEFF
:104A600002460B463046394600F0DEFC424682469E
:104A70008B464B462046294600F08CFE06460F46E4
:104A80003B4650465946324600F0CEFCC44B994254
:104A900004460D46884640F3178101F13F4303F574
:104AA000E003034340F02A82A5A3D3E90023504644
:104AB000594600F0B9FC324641EC180B3B46204603
:104AC000294600F0AFFC02460B4651EC180B01F0F2
:104AD000F1F8002840F01282C8F30A534FF4801214
:104AE000A3F2FE3342FA03F34344AE49C3F30A523E
:104AF000A2F2FF3241FA02FCC3F3130523EA0C01D0
:104B0000C2F1140445F48015B8F1000F0B4645FAC4
:104B100004F103914FF00000B8BF49420246B8BF0C
:104B200003913046394600F07DFC06460F463B4671
:104B300050465946324600F077FC039B1B05009314
:104B40000D46002480A3D3E900232046294600F027
:104B500021FE3246804689463B462046294600F0E3
:104B600061FC02460B465046594600F05BFC78A3B8
:104B7000D3E9002300F00EFE77A3D3E90023064615
:104B80000F462046294600F005FE02460B463046F9
:104B9000394600F049FC06460F4632463B46404641
:104BA000494600F041FC42464B4604460D4600F0A3
:104BB00039FC02460B463046394600F033FC2246AB
:104BC00082468B462B462046294600F0E3FD64A32F
:104BD000D3E9002306460F4600F0DCFD62A3D3E9CB
:104BE000002300F01FFC32463B4600F0D3FD60A3DB
:104BF000D3E9002300F018FC32463B4600F0CAFD22
:104C00005DA3D3E9002300F00DFC32463B4600F0E3
:104C1000C1FD5BA3D3E9002300F006FC32463B460E
:104C200000F0B8FD02460B462046294600F0FAFB8C
:104C300006460F4632463B462046294600F0AAFD6E
:104C40000022804689464FF080433046394600F0C6
:104C5000E9FB02460B464046494600F0C5FE524677
:104C600006460F465B462046294600F093FD524615
:104C70005B4600F0D9FB02460B463046394600F051
:104C8000D1FB22462B4600F0CDFB02460B4600200E
:104C9000454900F0C7FB0B4600991944B1F5801F48
:104CA0000246C0F26981104653EC192B00F072FDE8
:104CB000CDE900011EE4BBF1000FFFF695AC9FEDBE
:104CC000327B8DED007B15E4DFF8E4C021F000437A
:104CD000634540F30B81354B0B4403430AD1324605
:104CE0003B4600F09FFB52465B4600F0D9FF002890
:104CF0003FF4F2AE26A3D3E9002351EC190B00F0E8
:104D000049FD23A3D3E9002300F044FDCDE90001D0
:104D1000FFF7F0BB9FED207BB0EE479AF0EE679A6D
:104D200086E6BBF1000FCADA07F100430096019353
:104D3000FFF7E0BBAFF30080000000000000F0BF11
:104D4000FE822B654715973C00000000432EE63F8E
:104D5000EF39FAFE422EE63F396CA80C615C20BEAA
:104D6000D0A4BE726937663EF16BD2C541BDBB3E71
:104D70002CDE25AF6A56113F93BDBE166CC1663F4F
:104D80003E5555555555C53F000000000000000038
:104D900059F3F8C21F6EA501000000000000F03FAB
:104DA000FFFF8F40FFFF0F000000F03F00346F3F18
:104DB000FFCB90409845FFF67EAF914B98453FF76B
:104DC0000FAC8F4B0022DDE9000100F02BFB78A334
:104DD000D3E9002304460D4600F0DCFC76A3D3E9BA
:104DE000002382468B462046294600F0D3FC854BA3
:104DF0008046894600222046294600F0CBFC024628
:104E00000B466FA1D1E9000100F00CFB22462B46B6
:104E100000F0C0FC02460B4600207B4900F002FB7C
:104E200022462B4604460D461046194600F0B2FCB9
:104E300002460B462046294600F0ACFC62A3D3E9AB
:104E4000002300F0A7FC02460B464046494600F00E
:104E5000E9FA804689465046594642464B4600F09C
:104E6000E3FA002452465B4620460D4600F0DAFA8B
:104E700002460B464046494600F0D4FA82468B462D
:104E8000CAE59FED537BB0EE47BAF0EE67BAB0EEDD
:104E900047CAF0EE67CA9FED507B4FF0000954EC13
:104EA000173B1DE40020FFF7F3BB554922462B4674
:104EB000002000F099FDCDE90001FFF71BBB224661
:104EC0002B462046294600F065FCCDE90001FFF79E
:104ED00011BB002B42D1C1F114014AFA01F000FAD2
:104EE00001F151455AD00393FFF7E0BA464A934285
:104EF0005BDCDDE900120091039122E638A3D3E9DF
:104F0000002351EC190B00F045FC35A3D3E9002335
:104F100000F040FCCDE90001FFF7ECBA039B012B48
:104F20007FF4E8AADDE9002101F10043CDE9002387
:104F3000FFF7E0BA9FED2C7BB0EE47BAF0EE67BA10
:104F40009FED2B7BB0EE47CAF0EE67CA9FED2A7B40
:104F50004FF4802954EC173BFFF7C2BB45EC104BD4
:104F6000039200F017F9039A8DED000B002A7FF4ED
:104F700061AB0392FFF7F5BA039843EC102B00F0F6
:104F8000BBF951EC100B8FE600F00100C0F10201FB
:104F90000391002B3FF48AAAFFF7DABA00F0010070
:104FA000C0F102030393FFF781BA1B1596E500BF1A
:104FB000000000604715F73F44DF5DF80BAE543E3C
:104FC000555555555555D53FFE822B654715F73F2D
:104FD0000000000000000000000000000000F03FA2
:104FE0009C7500883CE4377E0000004003B8E23F37
:104FF00006D0CF43EBFD4C3E000000000000F83F20
:105000000000F03F0000D03F0000E03F2DE9F041FC
:105010005F4A57EC106BBA4300F09880002F10EEF7
:10502000104A3B464EDD39155BD0C3F31303CA0764
:1050300043F48013A1F2FF3E03D45B0003EBD4736F
:105040006400E20F4FF0000C02EB43034FEA6E0ED8
:105050006400664616254FF40012B118994202DC2E
:105060005B1A8E1894445B00013D03EBD4734FEA46
:1050700052024FEA4404F0D12F4620204FF0004264
:1050800009E03ED0E10F01384FEA520201EB430341
:105090004FEA44043ED0B34202EB0501F1DD0029A2
:1050A00001EB020509DBB0469B1BA14288BF03F15F
:1050B000FF33641A17444646E4E7002DF3DB06F19C
:1050C0000108F1E727F00042324336D0002F4DD1DE
:1050D0003946E20A153964051346002AF9D0D70289
:1050E00051D400205B00DE02054600F10100F9D535
:1050F0001A4623468440C0F12000C3401343491B95
:1051000093E7A142BED8002901EB0205D5DB984602
:105110000023CEE7234312D178084FEA6C0101F156
:105120007F511CF0010F01F5001118BF40F0004045
:1051300001EB0E53024643EC102BBDE8F0817B1CC3
:1051400016BF781C0CF1010C4008E6E710EE102A9F
:1051500010EE100A3B46394600F01CFB32463B4637
:1051600000F062F941EC100BBDE8F08110EE102A5E
:105170003046394600F056F902460B4600F034FC42
:1051800041EC100BD9E7234620204FF0FF35B4E760
:105190000000F07F51EC100B10EE102A21F00043BC
:1051A00043EC102B704700BF82B08DED000B0198CF
:1051B00040F0004000F58010C00F02B0704700BF03
:1051C0009FED010B704700BF000000000000F87F5A
:1051D000F0B553EC102BC3F30A56A6F2FF30132898
:1051E00010EE105A83B019464FEAD37431DC002810
:1051F0004CDB3E4E064103EA060717432ED003EA76
:1052000056031D434FEA56060CD04FF48023132853
:1052100021EA060643FA00F141EA06010CBF4FF00D
:1052200000450025324800EBC4042A46D4E9004575
:105230000B462046294600F0F7F8CDE90001DDE9EC
:10524000000122462B4600F0EDF841EC100B03B0B4
:10525000F0BD332806DDB0F5806F40D043EC102B55
:1052600003B0F0BDA6F213464FF0FF30F04002420B
:10527000F4D015EA50024FEA5003D3D04FF08042E9
:1052800025EA030542FA06F63543CBE723F0004052
:105290001043E3D0C3F313001043454205431448C1
:1052A00000EBC400D0E90067590C2D0B490405F44C
:1052B000002545EA01033046394600F0B5F8CDE94E
:1052C00000013B46DDE90001324600F0ABF821F079
:1052D000004343EAC47141EC100B03B0F0BD10EE83
:1052E000100A00F0A1F841EC100BB9E7FFFF0F0026
:1052F000787300080000000038B553EC102BC3F39E
:105300000A511C46054681BB10EE101A23F00044DA
:10531000214329D0194600223D4B3E4C10EE100A85
:1053200000F038FAA54202460B4616DB0C46C1F3E4
:105330000A513639294440F2FE70814221DC0029AD
:1053400047DC11F1350F34DA4CF250318D4218DC64
:10535000002B27A1D1E9000144DB25A3D3E90023D9
:1053600000F018FA41EC100B38BD40F2FF7081429A
:10537000E0D110EE100A194600F056F841EC100B7F
:1053800038BD002B1CA1D1E9000107DB1AA3D3E92A
:10539000002300F0FFF941EC100B38BD18A1D1E952
:1053A000000115A3D3E9002300F0F4F941EC100B40
:1053B000F3E724F0FF4424F4E004363144EA0153D7
:1053C000104619460022144B00F0E4F941EC100B92
:1053D00038BD24F0FF4424F4E00444EA015343ECD4
:1053E000102B38BD08A1D1E90001B6E7AFF300806A
:1053F00059F3F8C21F6EA5019C7500883CE4377E06
:105400009C7500883CE437FE59F3F8C21F6EA581F5
:1054100000005043B03CFFFF0000903C81F0004191
:1054200002E000BF83F0004330B54FEA41044FEA89
:10543000430594EA050F08BF90EA020F1FBF54EA24
:10544000000C55EA020C7FEA645C7FEA655C00F0C0
:10545000E2804FEA5454D4EB5555B8BF6D420CDD91
:105460002C4480EA020281EA030382EA000083EA14
:10547000010180EA020281EA0303362D88BF30BDB4
:1054800011F0004F4FEA01314FF4801C4CEA11310A
:1054900002D0404261EB410113F0004F4FEA033369
:1054A0004CEA133302D0524263EB430394EA050FF4
:1054B00000F0A780A4F10104D5F1200E0DDB02FA63
:1054C0000EFC22FA05F2801841F1000103FA0EF2F7
:1054D000801843FA05F359410EE0A5F120050EF1BD
:1054E000200E012A03FA0EFC28BF4CF0020C43FAEE
:1054F00005F3C01851EBE37101F0004507D54FF0FB
:10550000000EDCF1000C7EEB00006EEB0101B1F54A
:10551000801F1BD3B1F5001F0CD349085FEA300090
:105520004FEA3C0C04F101044FEA445212F5800F9B
:1055300080F09A80BCF1004F08BF5FEA500C50F138
:10554000000041EB045141EA050130BD5FEA4C0C1B
:10555000404141EB0101013C28BFB1F5801FE9D278
:1055600091F0000F04BF01460020B1FA81F308BF9B
:105570002033A3F10B03B3F120020CDA0C3208DD67
:1055800002F1140CC2F10C0201FA0CF021FA02F142
:105590000CE002F11402D8BFC2F1200C01FA02F1B2
:1055A00020FA0CFCDCBF41EA0C019040E41AA2BFD7
:1055B00001EB0451294330BD6FEA04041F3C1CDA9F
:1055C0000C340EDC04F11404C4F1200220FA04F0BF
:1055D00001FA02F340EA030021FA04F345EA030169
:1055E00030BDC4F10C04C4F1200220FA02F001FA2B
:1055F00004F340EA0300294630BD21FA04F02946AD
:1056000030BD94F0000F83F4801306BF81F4801145
:105610000134013D4EE77FEA645C18BF7FEA655CB8
:1056200029D094EA050F08BF90EA020F05D054EA8A
:10563000000C04BF1946104630BD91EA030F1EBF8F
:105640000021002030BD5FEA545C05D14000494193
:1056500028BF41F0004130BD14F580043CBF01F586
:10566000801130BD01F0004545F0FE4141F470016C
:105670004FF0000030BD7FEA645C1ABF1946104647
:105680007FEA655C1CBF0B46024650EA013406BF48
:1056900052EA033591EA030F41F4002130BD00BF07
:1056A00090F0000F04BF0021704730B54FF48064C4
:1056B00004F132044FF000054FF0000150E700BF45
:1056C00090F0000F04BF0021704730B54FF48064A4
:1056D00004F1320410F0004548BF40424FF0000191
:1056E0003EE700BF42004FEAE2014FEA31014FEAD4
:1056F00002701FBF12F07F4393F07F4F81F0605123
:10570000704732F07F4208BF704793F07F4F04BF6D
:1057100041F40021704730B54FF4607401F000454A
:1057200021F000411CE700BF50EA010208BF7047AA
:1057300030B54FF000050AE050EA010208BF70479B
:1057400030B511F0004502D5404261EB41014FF404
:10575000806404F132045FEA915C3FF4D8AE4FF00C
:1057600003025FEADC0C18BF03325FEADC0C18BFEF
:10577000033202EBDC02C2F1200300FA03FC20FA40
:1057800002F001FA03FE40EA0E0021FA02F114448D
:10579000BDE600BF70B54FF0FF0C4CF4E06C1CEAA6
:1057A00011541DBF1CEA135594EA0C0F95EA0C0F17
:1057B00000F0DEF82C4481EA030621EA4C5123EA8A
:1057C0004C5350EA013518BF52EA033541F48011B9
:1057D00043F4801338D0A0FB02CE4FF00005E1FB6C
:1057E00002E506F00042E0FB03E54FF00006E1FBB6
:1057F00003569CF0000F18BF4EF0010EA4F1FF04F9
:10580000B6F5007F64F5407404D25FEA4E0E6D4138
:1058100046EB060642EAC62141EA55514FEAC52049
:1058200040EA5E504FEACE2EB4F1FD0C88BFBCF5C5
:10583000E06F1ED8BEF1004F08BF5FEA500E50F176
:10584000000041EB045170BD06F0004646EA01013C
:1058500040EA020081EA0301B4EB5C04C2BFD4EB6E
:105860000C0541EA045170BD41F480114FF0000E67
:10587000013C00F3AB8014F1360FDEBF002001F0D5
:10588000004170BDC4F10004203C35DA0C341BDC4F
:1058900004F11404C4F1200500FA05F320FA04F021
:1058A00001FA05F240EA020001F0004221F0004155
:1058B00010EBD37021FA04F642EB06015EEA430EC8
:1058C00008BF20EAD37070BDC4F10C04C4F12005F8
:1058D00000FA04F320FA05F001FA04F240EA0200AB
:1058E00001F0004110EBD37041F100015EEA430E7C
:1058F00008BF20EAD37070BDC4F1200500FA05F29C
:105900004EEA020E20FA04F301FA05F243EA02031A
:1059100021FA04F001F0004121FA04F220EA020029
:1059200000EBD3705EEA430E08BF20EAD37070BD6F
:1059300094F0000F0FD101F00046400041EB01014F
:1059400011F4801F08BF013CF7D041EA060195F031
:10595000000F18BF704703F00046520043EB0303EB
:1059600013F4801F08BF013DF7D043EA06037047D8
:1059700094EA0C0F0CEA135518BF95EA0C0F0CD0E3
:1059800050EA410618BF52EA4306D1D181EA030129
:1059900001F000414FF0000070BD50EA410606BF23
:1059A0001046194652EA430619D094EA0C0F02D168
:1059B00050EA013613D195EA0C0F05D152EA0336AD
:1059C0001CBF104619460AD181EA030101F00041CB
:1059D00041F0FE4141F470014FF0000070BD41F014
:1059E000FE4141F4780170BD70B54FF0FF0C4CF4EE
:1059F000E06C1CEA11541DBF1CEA135594EA0C0F0D
:105A000095EA0C0F00F0A7F8A4EB050481EA030E59
:105A100052EA03354FEA013100F088804FEA033340
:105A20004FF0805545EA131343EA12634FEA02220E
:105A300045EA111545EA10654FEA00260EF00041CF
:105A40009D4208BF964244F1FD0404F5407402D221
:105A50005B084FEA3202B61A65EB03055B084FEAB2
:105A600032024FF480104FF4002CB6EB020E75EBAF
:105A7000030E22BFB61A754640EA0C005B084FEAD7
:105A80003202B6EB020E75EB030E22BFB61A754654
:105A900040EA5C005B084FEA3202B6EB020E75EB9F
:105AA000030E22BFB61A754640EA9C005B084FEA17
:105AB0003202B6EB020E75EB030E22BFB61A754624
:105AC00040EADC0055EA060E18D04FEA051545EA13
:105AD00016754FEA06164FEAC30343EA52734FEABC
